{
  "_format": "hh-sol-artifact-1",
  "contractName": "AIModelMarketplace",
  "sourceName": "contracts/AIModelMarketplace.sol",
  "abi": [
    {
      "inputs": [
        {
          "internalType": "address",
          "name": "_token",
          "type": "address"
        }
      ],
      "stateMutability": "nonpayable",
      "type": "constructor"
    },
    {
      "inputs": [
        {
          "internalType": "address",
          "name": "owner",
          "type": "address"
        }
      ],
      "name": "OwnableInvalidOwner",
      "type": "error"
    },
    {
      "inputs": [
        {
          "internalType": "address",
          "name": "account",
          "type": "address"
        }
      ],
      "name": "OwnableUnauthorizedAccount",
      "type": "error"
    },
    {
      "anonymous": false,
      "inputs": [
        {
          "indexed": false,
          "internalType": "uint256",
          "name": "id",
          "type": "uint256"
        },
        {
          "indexed": false,
          "internalType": "string",
          "name": "name",
          "type": "string"
        },
        {
          "indexed": false,
          "internalType": "uint256",
          "name": "price",
          "type": "uint256"
        },
        {
          "indexed": true,
          "internalType": "address",
          "name": "seller",
          "type": "address"
        }
      ],
      "name": "ModelListed",
      "type": "event"
    },
    {
      "anonymous": false,
      "inputs": [
        {
          "indexed": false,
          "internalType": "uint256",
          "name": "id",
          "type": "uint256"
        },
        {
          "indexed": true,
          "internalType": "address",
          "name": "buyer",
          "type": "address"
        }
      ],
      "name": "ModelSold",
      "type": "event"
    },
    {
      "anonymous": false,
      "inputs": [
        {
          "indexed": true,
          "internalType": "address",
          "name": "previousOwner",
          "type": "address"
        },
        {
          "indexed": true,
          "internalType": "address",
          "name": "newOwner",
          "type": "address"
        }
      ],
      "name": "OwnershipTransferred",
      "type": "event"
    },
    {
      "inputs": [
        {
          "internalType": "uint256",
          "name": "_id",
          "type": "uint256"
        }
      ],
      "name": "buyModel",
      "outputs": [],
      "stateMutability": "nonpayable",
      "type": "function"
    },
    {
      "inputs": [
        {
          "internalType": "uint256",
          "name": "_id",
          "type": "uint256"
        }
      ],
      "name": "getModelDetails",
      "outputs": [
        {
          "internalType": "string",
          "name": "",
          "type": "string"
        },
        {
          "internalType": "string",
          "name": "",
          "type": "string"
        },
        {
          "internalType": "uint256",
          "name": "",
          "type": "uint256"
        },
        {
          "internalType": "address",
          "name": "",
          "type": "address"
        },
        {
          "internalType": "bool",
          "name": "",
          "type": "bool"
        }
      ],
      "stateMutability": "view",
      "type": "function"
    },
    {
      "inputs": [],
      "name": "getTotalModels",
      "outputs": [
        {
          "internalType": "uint256",
          "name": "",
          "type": "uint256"
        }
      ],
      "stateMutability": "view",
      "type": "function"
    },
    {
      "inputs": [
        {
          "internalType": "string",
          "name": "_name",
          "type": "string"
        },
        {
          "internalType": "string",
          "name": "_description",
          "type": "string"
        },
        {
          "internalType": "uint256",
          "name": "_price",
          "type": "uint256"
        }
      ],
      "name": "listModel",
      "outputs": [],
      "stateMutability": "nonpayable",
      "type": "function"
    },
    {
      "inputs": [],
      "name": "modelCounter",
      "outputs": [
        {
          "internalType": "uint256",
          "name": "",
          "type": "uint256"
        }
      ],
      "stateMutability": "view",
      "type": "function"
    },
    {
      "inputs": [
        {
          "internalType": "uint256",
          "name": "",
          "type": "uint256"
        }
      ],
      "name": "models",
      "outputs": [
        {
          "internalType": "uint256",
          "name": "id",
          "type": "uint256"
        },
        {
          "internalType": "string",
          "name": "name",
          "type": "string"
        },
        {
          "internalType": "string",
          "name": "description",
          "type": "string"
        },
        {
          "internalType": "uint256",
          "name": "price",
          "type": "uint256"
        },
        {
          "internalType": "address payable",
          "name": "seller",
          "type": "address"
        },
        {
          "internalType": "bool",
          "name": "sold",
          "type": "bool"
        }
      ],
      "stateMutability": "view",
      "type": "function"
    },
    {
      "inputs": [],
      "name": "owner",
      "outputs": [
        {
          "internalType": "address",
          "name": "",
          "type": "address"
        }
      ],
      "stateMutability": "view",
      "type": "function"
    },
    {
      "inputs": [],
      "name": "renounceOwnership",
      "outputs": [],
      "stateMutability": "nonpayable",
      "type": "function"
    },
    {
      "inputs": [],
      "name": "token",
      "outputs": [
        {
          "internalType": "contract IERC20",
          "name": "",
          "type": "address"
        }
      ],
      "stateMutability": "view",
      "type": "function"
    },
    {
      "inputs": [
        {
          "internalType": "address",
          "name": "newOwner",
          "type": "address"
        }
      ],
      "name": "transferOwnership",
      "outputs": [],
      "stateMutability": "nonpayable",
      "type": "function"
    }
  ],
  "bytecode": "0x60806040523480156200001157600080fd5b506040516200194b3803806200194b8339818101604052810190620000379190620002a7565b33600073ffffffffffffffffffffffffffffffffffffffff168173ffffffffffffffffffffffffffffffffffffffff1603620000ad5760006040517f1e4fbdf7000000000000000000000000000000000000000000000000000000008152600401620000a49190620002ea565b60405180910390fd5b620000be816200017960201b60201c565b50600073ffffffffffffffffffffffffffffffffffffffff168173ffffffffffffffffffffffffffffffffffffffff160362000131576040517f08c379a0000000000000000000000000000000000000000000000000000000008152600401620001289062000368565b60405180910390fd5b80600160006101000a81548173ffffffffffffffffffffffffffffffffffffffff021916908373ffffffffffffffffffffffffffffffffffffffff160217905550506200038a565b60008060009054906101000a900473ffffffffffffffffffffffffffffffffffffffff169050816000806101000a81548173ffffffffffffffffffffffffffffffffffffffff021916908373ffffffffffffffffffffffffffffffffffffffff1602179055508173ffffffffffffffffffffffffffffffffffffffff168173ffffffffffffffffffffffffffffffffffffffff167f8be0079c531659141344cd1fd0a4f28419497f9722a3daafe3b4186f6b6457e060405160405180910390a35050565b600080fd5b600073ffffffffffffffffffffffffffffffffffffffff82169050919050565b60006200026f8262000242565b9050919050565b620002818162000262565b81146200028d57600080fd5b50565b600081519050620002a18162000276565b92915050565b600060208284031215620002c057620002bf6200023d565b5b6000620002d08482850162000290565b91505092915050565b620002e48162000262565b82525050565b6000602082019050620003016000830184620002d9565b92915050565b600082825260208201905092915050565b7f546f6b656e20616464726573732063616e6e6f74206265207a65726f00000000600082015250565b600062000350601c8362000307565b91506200035d8262000318565b602082019050919050565b60006020820190508181036000830152620003838162000341565b9050919050565b6115b1806200039a6000396000f3fe608060405234801561001057600080fd5b506004361061009e5760003560e01c8063bf6a6fc111610066578063bf6a6fc114610150578063cc408b8a1461016c578063f2fde38b1461018a578063f508dde6146101a6578063fc0c546a146101c45761009e565b806312ee1c0e146100a357806331fc042f146100bf5780636a030ca9146100f3578063715018a6146101285780638da5cb5b14610132575b600080fd5b6100bd60048036038101906100b89190610c61565b6101e2565b005b6100d960048036038101906100d49190610cec565b61039d565b6040516100ea959493929190610e03565b60405180910390f35b61010d60048036038101906101089190610cec565b61052b565b60405161011f96959493929190610e85565b60405180910390f35b6101306106a4565b005b61013a6106b8565b6040516101479190610ef4565b60405180910390f35b61016a60048036038101906101659190610cec565b6106e1565b005b6101746108c2565b6040516101819190610f0f565b60405180910390f35b6101a4600480360381019061019f9190610f56565b6108c8565b005b6101ae61094e565b6040516101bb9190610f0f565b60405180910390f35b6101cc610958565b6040516101d99190610fe2565b60405180910390f35b60008111610225576040517f08c379a000000000000000000000000000000000000000000000000000000000815260040161021c90611049565b60405180910390fd5b6002600081548092919061023890611098565b91905055506040518060c0016040528060025481526020018481526020018381526020018281526020013373ffffffffffffffffffffffffffffffffffffffff168152602001600015158152506003600060025481526020019081526020016000206000820151816000015560208201518160010190816102b991906112e2565b5060408201518160020190816102cf91906112e2565b506060820151816003015560808201518160040160006101000a81548173ffffffffffffffffffffffffffffffffffffffff021916908373ffffffffffffffffffffffffffffffffffffffff16021790555060a08201518160040160146101000a81548160ff0219169083151502179055509050503373ffffffffffffffffffffffffffffffffffffffff167f4eed6af0d402cb471979373747ee3f09e77a623bff41d503ce96edacb72d858f6002548584604051610390939291906113b4565b60405180910390a2505050565b606080600080600080600360008881526020019081526020016000209050806001018160020182600301548360040160009054906101000a900473ffffffffffffffffffffffffffffffffffffffff168460040160149054906101000a900460ff1684805461040b9061110f565b80601f01602080910402602001604051908101604052809291908181526020018280546104379061110f565b80156104845780601f1061045957610100808354040283529160200191610484565b820191906000526020600020905b81548152906001019060200180831161046757829003601f168201915b505050505094508380546104979061110f565b80601f01602080910402602001604051908101604052809291908181526020018280546104c39061110f565b80156105105780601f106104e557610100808354040283529160200191610510565b820191906000526020600020905b8154815290600101906020018083116104f357829003601f168201915b50505050509350955095509550955095505091939590929450565b60036020528060005260406000206000915090508060000154908060010180546105549061110f565b80601f01602080910402602001604051908101604052809291908181526020018280546105809061110f565b80156105cd5780601f106105a2576101008083540402835291602001916105cd565b820191906000526020600020905b8154815290600101906020018083116105b057829003601f168201915b5050505050908060020180546105e29061110f565b80601f016020809104026020016040519081016040528092919081815260200182805461060e9061110f565b801561065b5780601f106106305761010080835404028352916020019161065b565b820191906000526020600020905b81548152906001019060200180831161063e57829003601f168201915b5050505050908060030154908060040160009054906101000a900473ffffffffffffffffffffffffffffffffffffffff16908060040160149054906101000a900460ff16905086565b6106ac61097e565b6106b66000610a05565b565b60008060009054906101000a900473ffffffffffffffffffffffffffffffffffffffff16905090565b60006003600083815260200190815260200160002090508060040160149054906101000a900460ff161561074a576040517f08c379a00000000000000000000000000000000000000000000000000000000081526004016107419061143e565b60405180910390fd5b600160009054906101000a900473ffffffffffffffffffffffffffffffffffffffff1673ffffffffffffffffffffffffffffffffffffffff166323b872dd338360040160009054906101000a900473ffffffffffffffffffffffffffffffffffffffff1684600301546040518463ffffffff1660e01b81526004016107d19392919061147f565b6020604051808303816000875af11580156107f0573d6000803e3d6000fd5b505050506040513d601f19601f8201168201806040525081019061081491906114e2565b610853576040517f08c379a000000000000000000000000000000000000000000000000000000000815260040161084a9061155b565b60405180910390fd5b60018160040160146101000a81548160ff0219169083151502179055503373ffffffffffffffffffffffffffffffffffffffff167f1890963e72f8f0ee471c25f4557b034ba23bed6345fa1647ffee56ed17312cc2836040516108b69190610f0f565b60405180910390a25050565b60025481565b6108d061097e565b600073ffffffffffffffffffffffffffffffffffffffff168173ffffffffffffffffffffffffffffffffffffffff16036109425760006040517f1e4fbdf70000000000000000000000000000000000000000000000000000000081526004016109399190610ef4565b60405180910390fd5b61094b81610a05565b50565b6000600254905090565b600160009054906101000a900473ffffffffffffffffffffffffffffffffffffffff1681565b610986610ac9565b73ffffffffffffffffffffffffffffffffffffffff166109a46106b8565b73ffffffffffffffffffffffffffffffffffffffff1614610a03576109c7610ac9565b6040517f118cdaa70000000000000000000000000000000000000000000000000000000081526004016109fa9190610ef4565b60405180910390fd5b565b60008060009054906101000a900473ffffffffffffffffffffffffffffffffffffffff169050816000806101000a81548173ffffffffffffffffffffffffffffffffffffffff021916908373ffffffffffffffffffffffffffffffffffffffff1602179055508173ffffffffffffffffffffffffffffffffffffffff168173ffffffffffffffffffffffffffffffffffffffff167f8be0079c531659141344cd1fd0a4f28419497f9722a3daafe3b4186f6b6457e060405160405180910390a35050565b600033905090565b6000604051905090565b600080fd5b600080fd5b600080fd5b600080fd5b6000601f19601f8301169050919050565b7f4e487b7100000000000000000000000000000000000000000000000000000000600052604160045260246000fd5b610b3882610aef565b810181811067ffffffffffffffff82111715610b5757610b56610b00565b5b80604052505050565b6000610b6a610ad1565b9050610b768282610b2f565b919050565b600067ffffffffffffffff821115610b9657610b95610b00565b5b610b9f82610aef565b9050602081019050919050565b82818337600083830152505050565b6000610bce610bc984610b7b565b610b60565b905082815260208101848484011115610bea57610be9610aea565b5b610bf5848285610bac565b509392505050565b600082601f830112610c1257610c11610ae5565b5b8135610c22848260208601610bbb565b91505092915050565b6000819050919050565b610c3e81610c2b565b8114610c4957600080fd5b50565b600081359050610c5b81610c35565b92915050565b600080600060608486031215610c7a57610c79610adb565b5b600084013567ffffffffffffffff811115610c9857610c97610ae0565b5b610ca486828701610bfd565b935050602084013567ffffffffffffffff811115610cc557610cc4610ae0565b5b610cd186828701610bfd565b9250506040610ce286828701610c4c565b9150509250925092565b600060208284031215610d0257610d01610adb565b5b6000610d1084828501610c4c565b91505092915050565b600081519050919050565b600082825260208201905092915050565b60005b83811015610d53578082015181840152602081019050610d38565b60008484015250505050565b6000610d6a82610d19565b610d748185610d24565b9350610d84818560208601610d35565b610d8d81610aef565b840191505092915050565b610da181610c2b565b82525050565b600073ffffffffffffffffffffffffffffffffffffffff82169050919050565b6000610dd282610da7565b9050919050565b610de281610dc7565b82525050565b60008115159050919050565b610dfd81610de8565b82525050565b600060a0820190508181036000830152610e1d8188610d5f565b90508181036020830152610e318187610d5f565b9050610e406040830186610d98565b610e4d6060830185610dd9565b610e5a6080830184610df4565b9695505050505050565b6000610e6f82610da7565b9050919050565b610e7f81610e64565b82525050565b600060c082019050610e9a6000830189610d98565b8181036020830152610eac8188610d5f565b90508181036040830152610ec08187610d5f565b9050610ecf6060830186610d98565b610edc6080830185610e76565b610ee960a0830184610df4565b979650505050505050565b6000602082019050610f096000830184610dd9565b92915050565b6000602082019050610f246000830184610d98565b92915050565b610f3381610dc7565b8114610f3e57600080fd5b50565b600081359050610f5081610f2a565b92915050565b600060208284031215610f6c57610f6b610adb565b5b6000610f7a84828501610f41565b91505092915050565b6000819050919050565b6000610fa8610fa3610f9e84610da7565b610f83565b610da7565b9050919050565b6000610fba82610f8d565b9050919050565b6000610fcc82610faf565b9050919050565b610fdc81610fc1565b82525050565b6000602082019050610ff76000830184610fd3565b92915050565b7f5072696365206d7573742062652067726561746572207468616e207a65726f00600082015250565b6000611033601f83610d24565b915061103e82610ffd565b602082019050919050565b6000602082019050818103600083015261106281611026565b9050919050565b7f4e487b7100000000000000000000000000000000000000000000000000000000600052601160045260246000fd5b60006110a382610c2b565b91507fffffffffffffffffffffffffffffffffffffffffffffffffffffffffffffffff82036110d5576110d4611069565b5b600182019050919050565b7f4e487b7100000000000000000000000000000000000000000000000000000000600052602260045260246000fd5b6000600282049050600182168061112757607f821691505b60208210810361113a576111396110e0565b5b50919050565b60008190508160005260206000209050919050565b60006020601f8301049050919050565b600082821b905092915050565b6000600883026111a27fffffffffffffffffffffffffffffffffffffffffffffffffffffffffffffffff82611165565b6111ac8683611165565b95508019841693508086168417925050509392505050565b60006111df6111da6111d584610c2b565b610f83565b610c2b565b9050919050565b6000819050919050565b6111f9836111c4565b61120d611205826111e6565b848454611172565b825550505050565b600090565b611222611215565b61122d8184846111f0565b505050565b5b818110156112515761124660008261121a565b600181019050611233565b5050565b601f8211156112965761126781611140565b61127084611155565b8101602085101561127f578190505b61129361128b85611155565b830182611232565b50505b505050565b600082821c905092915050565b60006112b96000198460080261129b565b1980831691505092915050565b60006112d283836112a8565b9150826002028217905092915050565b6112eb82610d19565b67ffffffffffffffff81111561130457611303610b00565b5b61130e825461110f565b611319828285611255565b600060209050601f83116001811461134c576000841561133a578287015190505b61134485826112c6565b8655506113ac565b601f19841661135a86611140565b60005b828110156113825784890151825560018201915060208501945060208101905061135d565b8683101561139f578489015161139b601f8916826112a8565b8355505b6001600288020188555050505b505050505050565b60006060820190506113c96000830186610d98565b81810360208301526113db8185610d5f565b90506113ea6040830184610d98565b949350505050565b7f4d6f64656c20616c726561647920736f6c640000000000000000000000000000600082015250565b6000611428601283610d24565b9150611433826113f2565b602082019050919050565b600060208201905081810360008301526114578161141b565b9050919050565b600061146982610faf565b9050919050565b6114798161145e565b82525050565b60006060820190506114946000830186610dd9565b6114a16020830185611470565b6114ae6040830184610d98565b949350505050565b6114bf81610de8565b81146114ca57600080fd5b50565b6000815190506114dc816114b6565b92915050565b6000602082840312156114f8576114f7610adb565b5b6000611506848285016114cd565b91505092915050565b7f5061796d656e74206661696c6564000000000000000000000000000000000000600082015250565b6000611545600e83610d24565b91506115508261150f565b602082019050919050565b6000602082019050818103600083015261157481611538565b905091905056fea2646970667358221220c14039dd5d1360f34b3aaf4758c9e6822c26544d6cb893996abe47b9721435ce64736f6c63430008140033",
  "linkReferences": {},
  "deployedLinkReferences": {}
}